{
  "_format": "hh-sol-artifact-1",
  "contractName": "Factory",
  "sourceName": "contracts/Factory.sol",
  "abi": [
    {
      "inputs": [
        {
          "internalType": "address",
          "name": "_token",
          "type": "address"
        }
      ],
      "name": "createExchange",
      "outputs": [
        {
          "internalType": "address",
          "name": "",
          "type": "address"
        }
      ],
      "stateMutability": "nonpayable",
      "type": "function"
    },
    {
      "inputs": [
        {
          "internalType": "address",
          "name": "_token",
          "type": "address"
        }
      ],
      "name": "getExchange",
      "outputs": [
        {
          "internalType": "address",
          "name": "",
          "type": "address"
        }
      ],
      "stateMutability": "view",
      "type": "function"
    }
  ],
  "bytecode": "0x608060405234801561001057600080fd5b50612b7e806100206000396000f3fe608060405234801561001057600080fd5b50600436106100365760003560e01c806306f2bf621461003b5780631648f38e1461006b575b600080fd5b61005560048036038101906100509190610232565b61009b565b604051610062919061026e565b60405180910390f35b61008560048036038101906100809190610232565b610103565b604051610092919061026e565b60405180910390f35b60008060008373ffffffffffffffffffffffffffffffffffffffff1673ffffffffffffffffffffffffffffffffffffffff16815260200190815260200160002060009054906101000a900473ffffffffffffffffffffffffffffffffffffffff169050919050565b60008082604051610113906101c2565b61011d919061026e565b604051809103906000f080158015610139573d6000803e3d6000fd5b509050806000808573ffffffffffffffffffffffffffffffffffffffff1673ffffffffffffffffffffffffffffffffffffffff16815260200190815260200160002060006101000a81548173ffffffffffffffffffffffffffffffffffffffff021916908373ffffffffffffffffffffffffffffffffffffffff16021790555080915050919050565b6128bf8061028a83390190565b600080fd5b600073ffffffffffffffffffffffffffffffffffffffff82169050919050565b60006101ff826101d4565b9050919050565b61020f816101f4565b811461021a57600080fd5b50565b60008135905061022c81610206565b92915050565b600060208284031215610248576102476101cf565b5b60006102568482850161021d565b91505092915050565b610268816101f4565b82525050565b6000602082019050610283600083018461025f565b9291505056fe60806040523480156200001157600080fd5b50604051620028bf380380620028bf83398181016040528101906200003791906200027a565b6040518060400160405280600f81526020017f4772617920556e697377617020563200000000000000000000000000000000008152506040518060400160405280600781526020017f47554e492d5632000000000000000000000000000000000000000000000000008152508160039080519060200190620000bb92919062000160565b508060049080519060200190620000d492919062000160565b50505080600560006101000a81548173ffffffffffffffffffffffffffffffffffffffff021916908373ffffffffffffffffffffffffffffffffffffffff16021790555033600660006101000a81548173ffffffffffffffffffffffffffffffffffffffff021916908373ffffffffffffffffffffffffffffffffffffffff1602179055505062000311565b8280546200016e90620002db565b90600052602060002090601f016020900481019282620001925760008555620001de565b82601f10620001ad57805160ff1916838001178555620001de565b82800160010185558215620001de579182015b82811115620001dd578251825591602001919060010190620001c0565b5b509050620001ed9190620001f1565b5090565b5b808211156200020c576000816000905550600101620001f2565b5090565b600080fd5b600073ffffffffffffffffffffffffffffffffffffffff82169050919050565b6000620002428262000215565b9050919050565b620002548162000235565b81146200026057600080fd5b50565b600081519050620002748162000249565b92915050565b60006020828403121562000293576200029262000210565b5b6000620002a38482850162000263565b91505092915050565b7f4e487b7100000000000000000000000000000000000000000000000000000000600052602260045260246000fd5b60006002820490506001821680620002f457607f821691505b602082108114156200030b576200030a620002ac565b5b50919050565b61259e80620003216000396000f3fe6080604052600436106101095760003560e01c806370a0823111610095578063a9059cbb11610064578063a9059cbb146103aa578063d3fdbbb5146103e7578063dd62ed3e14610424578063e0486c8a14610461578063f979dcd71461048a57610109565b806370a08231146102dc57806395d89b41146103195780639c8f9f2314610344578063a457c2d71461036d57610109565b8063313ce567116100dc578063313ce567146101de578063395093511461020957806351c6590a14610246578063533a7b73146102625780635cf4ee911461029f57610109565b806306fdde031461010e578063095ea7b31461013957806318160ddd1461017657806323b872dd146101a1575b600080fd5b34801561011a57600080fd5b506101236104a6565b6040516101309190611989565b60405180910390f35b34801561014557600080fd5b50610160600480360381019061015b9190611a44565b610538565b60405161016d9190611a9f565b60405180910390f35b34801561018257600080fd5b5061018b61055b565b6040516101989190611ac9565b60405180910390f35b3480156101ad57600080fd5b506101c860048036038101906101c39190611ae4565b610565565b6040516101d59190611a9f565b60405180910390f35b3480156101ea57600080fd5b506101f3610594565b6040516102009190611b53565b60405180910390f35b34801561021557600080fd5b50610230600480360381019061022b9190611a44565b61059d565b60405161023d9190611a9f565b60405180910390f35b610260600480360381019061025b9190611b6e565b6105d4565b005b34801561026e57600080fd5b5061028960048036038101906102849190611b9b565b61087d565b6040516102969190611ac9565b60405180910390f35b3480156102ab57600080fd5b506102c660048036038101906102c19190611bee565b6108d3565b6040516102d39190611ac9565b60405180910390f35b3480156102e857600080fd5b5061030360048036038101906102fe9190611c2e565b6108f4565b6040516103109190611ac9565b60405180910390f35b34801561032557600080fd5b5061032e61093c565b60405161033b9190611989565b60405180910390f35b34801561035057600080fd5b5061036b60048036038101906103669190611b6e565b6109ce565b005b34801561037957600080fd5b50610394600480360381019061038f9190611a44565b610bc1565b6040516103a19190611a9f565b60405180910390f35b3480156103b657600080fd5b506103d160048036038101906103cc9190611a44565b610c38565b6040516103de9190611a9f565b60405180910390f35b3480156103f357600080fd5b5061040e60048036038101906104099190611b9b565b610c5b565b60405161041b9190611ac9565b60405180910390f35b34801561043057600080fd5b5061044b60048036038101906104469190611c5b565b610c93565b6040516104589190611ac9565b60405180910390f35b34801561046d57600080fd5b5061048860048036038101906104839190611bee565b610d1a565b005b6104a4600480360381019061049f9190611b6e565b610f14565b005b6060600380546104b590611cca565b80601f01602080910402602001604051908101604052809291908181526020018280546104e190611cca565b801561052e5780601f106105035761010080835404028352916020019161052e565b820191906000526020600020905b81548152906001019060200180831161051157829003601f168201915b5050505050905090565b6000806105436110cf565b90506105508185856110d7565b600191505092915050565b6000600254905090565b6000806105706110cf565b905061057d8582856112a2565b61058885858561132e565b60019150509392505050565b60006012905090565b6000806105a86110cf565b90506105c98185856105ba8589610c93565b6105c49190611d2b565b6110d7565b600191505092915050565b60006105de61055b565b905060008111156107b057600034476105f79190611d81565b90506000600560009054906101000a900473ffffffffffffffffffffffffffffffffffffffff1673ffffffffffffffffffffffffffffffffffffffff166370a08231306040518263ffffffff1660e01b81526004016106569190611dc4565b60206040518083038186803b15801561066e57600080fd5b505afa158015610682573d6000803e3d6000fd5b505050506040513d601f19601f820116820180604052508101906106a69190611df4565b905060008282346106b79190611e21565b6106c19190611eaa565b9050808510156106d057600080fd5b600560009054906101000a900473ffffffffffffffffffffffffffffffffffffffff1673ffffffffffffffffffffffffffffffffffffffff166323b872dd3330846040518463ffffffff1660e01b815260040161072f93929190611edb565b602060405180830381600087803b15801561074957600080fd5b505af115801561075d573d6000803e3d6000fd5b505050506040513d601f19601f820116820180604052508101906107819190611f3e565b5060008334866107919190611e21565b61079b9190611eaa565b90506107a733826115af565b50505050610879565b600082905060004790506107c433826115af565b600560009054906101000a900473ffffffffffffffffffffffffffffffffffffffff1673ffffffffffffffffffffffffffffffffffffffff166323b872dd3330856040518463ffffffff1660e01b815260040161082393929190611edb565b602060405180830381600087803b15801561083d57600080fd5b505af1158015610851573d6000803e3d6000fd5b505050506040513d601f19601f820116820180604052508101906108759190611f3e565b5050505b5050565b60008060638561088d9190611e21565b90506000818461089d9190611e21565b90506000826064876108af9190611e21565b6108b99190611d2b565b905080826108c79190611eaa565b93505050509392505050565b600080839050600083905080826108ea9190611eaa565b9250505092915050565b60008060008373ffffffffffffffffffffffffffffffffffffffff1673ffffffffffffffffffffffffffffffffffffffff168152602001908152602001600020549050919050565b60606004805461094b90611cca565b80601f016020809104026020016040519081016040528092919081815260200182805461097790611cca565b80156109c45780601f10610999576101008083540402835291602001916109c4565b820191906000526020600020905b8154815290600101906020018083116109a757829003601f168201915b5050505050905090565b60006109d861055b565b905060008147846109e99190611e21565b6109f39190611eaa565b9050600082600560009054906101000a900473ffffffffffffffffffffffffffffffffffffffff1673ffffffffffffffffffffffffffffffffffffffff166370a08231306040518263ffffffff1660e01b8152600401610a539190611dc4565b60206040518083038186803b158015610a6b57600080fd5b505afa158015610a7f573d6000803e3d6000fd5b505050506040513d601f19601f82011682018060405250810190610aa39190611df4565b85610aae9190611e21565b610ab89190611eaa565b9050610ac4338561170f565b3373ffffffffffffffffffffffffffffffffffffffff166108fc839081150290604051600060405180830381858888f19350505050158015610b0a573d6000803e3d6000fd5b50600560009054906101000a900473ffffffffffffffffffffffffffffffffffffffff1673ffffffffffffffffffffffffffffffffffffffff1663a9059cbb33836040518363ffffffff1660e01b8152600401610b68929190611f6b565b602060405180830381600087803b158015610b8257600080fd5b505af1158015610b96573d6000803e3d6000fd5b505050506040513d601f19601f82011682018060405250810190610bba9190611f3e565b5050505050565b600080610bcc6110cf565b90506000610bda8286610c93565b905083811015610c1f576040517f08c379a0000000000000000000000000000000000000000000000000000000008152600401610c1690612006565b60405180910390fd5b610c2c82868684036110d7565b60019250505092915050565b600080610c436110cf565b9050610c5081858561132e565b600191505092915050565b6000808483610c6a9190611e21565b905060008585610c7a9190611d2b565b90508082610c889190611eaa565b925050509392505050565b6000600160008473ffffffffffffffffffffffffffffffffffffffff1673ffffffffffffffffffffffffffffffffffffffff16815260200190815260200160002060008373ffffffffffffffffffffffffffffffffffffffff1673ffffffffffffffffffffffffffffffffffffffff16815260200190815260200160002054905092915050565b6000610dd183600560009054906101000a900473ffffffffffffffffffffffffffffffffffffffff1673ffffffffffffffffffffffffffffffffffffffff166370a08231306040518263ffffffff1660e01b8152600401610d7b9190611dc4565b60206040518083038186803b158015610d9357600080fd5b505afa158015610da7573d6000803e3d6000fd5b505050506040513d601f19601f82011682018060405250810190610dcb9190611df4565b47610c5b565b905081811015610e16576040517f08c379a0000000000000000000000000000000000000000000000000000000008152600401610e0d90612072565b60405180910390fd5b600560009054906101000a900473ffffffffffffffffffffffffffffffffffffffff1673ffffffffffffffffffffffffffffffffffffffff166323b872dd3330866040518463ffffffff1660e01b8152600401610e7593929190611edb565b602060405180830381600087803b158015610e8f57600080fd5b505af1158015610ea3573d6000803e3d6000fd5b505050506040513d601f19601f82011682018060405250810190610ec79190611f3e565b503373ffffffffffffffffffffffffffffffffffffffff166108fc829081150290604051600060405180830381858888f19350505050158015610f0e573d6000803e3d6000fd5b50505050565b6000610fd6343447610f269190611d81565b600560009054906101000a900473ffffffffffffffffffffffffffffffffffffffff1673ffffffffffffffffffffffffffffffffffffffff166370a08231306040518263ffffffff1660e01b8152600401610f819190611dc4565b60206040518083038186803b158015610f9957600080fd5b505afa158015610fad573d6000803e3d6000fd5b505050506040513d601f19601f82011682018060405250810190610fd19190611df4565b61087d565b90508181101561101b576040517f08c379a000000000000000000000000000000000000000000000000000000000815260040161101290612072565b60405180910390fd5b600560009054906101000a900473ffffffffffffffffffffffffffffffffffffffff1673ffffffffffffffffffffffffffffffffffffffff1663a9059cbb33836040518363ffffffff1660e01b8152600401611078929190611f6b565b602060405180830381600087803b15801561109257600080fd5b505af11580156110a6573d6000803e3d6000fd5b505050506040513d601f19601f820116820180604052508101906110ca9190611f3e565b505050565b600033905090565b600073ffffffffffffffffffffffffffffffffffffffff168373ffffffffffffffffffffffffffffffffffffffff161415611147576040517f08c379a000000000000000000000000000000000000000000000000000000000815260040161113e90612104565b60405180910390fd5b600073ffffffffffffffffffffffffffffffffffffffff168273ffffffffffffffffffffffffffffffffffffffff1614156111b7576040517f08c379a00000000000000000000000000000000000000000000000000000000081526004016111ae90612196565b60405180910390fd5b80600160008573ffffffffffffffffffffffffffffffffffffffff1673ffffffffffffffffffffffffffffffffffffffff16815260200190815260200160002060008473ffffffffffffffffffffffffffffffffffffffff1673ffffffffffffffffffffffffffffffffffffffff168152602001908152602001600020819055508173ffffffffffffffffffffffffffffffffffffffff168373ffffffffffffffffffffffffffffffffffffffff167f8c5be1e5ebec7d5bd14f71427d1e84f3dd0314c0f7b2291e5b200ac8c7c3b925836040516112959190611ac9565b60405180910390a3505050565b60006112ae8484610c93565b90507fffffffffffffffffffffffffffffffffffffffffffffffffffffffffffffffff8114611328578181101561131a576040517f08c379a000000000000000000000000000000000000000000000000000000000815260040161131190612202565b60405180910390fd5b61132784848484036110d7565b5b50505050565b600073ffffffffffffffffffffffffffffffffffffffff168373ffffffffffffffffffffffffffffffffffffffff16141561139e576040517f08c379a000000000000000000000000000000000000000000000000000000000815260040161139590612294565b60405180910390fd5b600073ffffffffffffffffffffffffffffffffffffffff168273ffffffffffffffffffffffffffffffffffffffff16141561140e576040517f08c379a000000000000000000000000000000000000000000000000000000000815260040161140590612326565b60405180910390fd5b6114198383836118e6565b60008060008573ffffffffffffffffffffffffffffffffffffffff1673ffffffffffffffffffffffffffffffffffffffff1681526020019081526020016000205490508181101561149f576040517f08c379a0000000000000000000000000000000000000000000000000000000008152600401611496906123b8565b60405180910390fd5b8181036000808673ffffffffffffffffffffffffffffffffffffffff1673ffffffffffffffffffffffffffffffffffffffff16815260200190815260200160002081905550816000808573ffffffffffffffffffffffffffffffffffffffff1673ffffffffffffffffffffffffffffffffffffffff16815260200190815260200160002060008282546115329190611d2b565b925050819055508273ffffffffffffffffffffffffffffffffffffffff168473ffffffffffffffffffffffffffffffffffffffff167fddf252ad1be2c89b69c2b068fc378daa952ba7f163c4a11628f55a4df523b3ef846040516115969190611ac9565b60405180910390a36115a98484846118eb565b50505050565b600073ffffffffffffffffffffffffffffffffffffffff168273ffffffffffffffffffffffffffffffffffffffff16141561161f576040517f08c379a000000000000000000000000000000000000000000000000000000000815260040161161690612424565b60405180910390fd5b61162b600083836118e6565b806002600082825461163d9190611d2b565b92505081905550806000808473ffffffffffffffffffffffffffffffffffffffff1673ffffffffffffffffffffffffffffffffffffffff16815260200190815260200160002060008282546116929190611d2b565b925050819055508173ffffffffffffffffffffffffffffffffffffffff16600073ffffffffffffffffffffffffffffffffffffffff167fddf252ad1be2c89b69c2b068fc378daa952ba7f163c4a11628f55a4df523b3ef836040516116f79190611ac9565b60405180910390a361170b600083836118eb565b5050565b600073ffffffffffffffffffffffffffffffffffffffff168273ffffffffffffffffffffffffffffffffffffffff16141561177f576040517f08c379a0000000000000000000000000000000000000000000000000000000008152600401611776906124b6565b60405180910390fd5b61178b826000836118e6565b60008060008473ffffffffffffffffffffffffffffffffffffffff1673ffffffffffffffffffffffffffffffffffffffff16815260200190815260200160002054905081811015611811576040517f08c379a000000000000000000000000000000000000000000000000000000000815260040161180890612548565b60405180910390fd5b8181036000808573ffffffffffffffffffffffffffffffffffffffff1673ffffffffffffffffffffffffffffffffffffffff1681526020019081526020016000208190555081600260008282546118689190611d81565b92505081905550600073ffffffffffffffffffffffffffffffffffffffff168373ffffffffffffffffffffffffffffffffffffffff167fddf252ad1be2c89b69c2b068fc378daa952ba7f163c4a11628f55a4df523b3ef846040516118cd9190611ac9565b60405180910390a36118e1836000846118eb565b505050565b505050565b505050565b600081519050919050565b600082825260208201905092915050565b60005b8381101561192a57808201518184015260208101905061190f565b83811115611939576000848401525b50505050565b6000601f19601f8301169050919050565b600061195b826118f0565b61196581856118fb565b935061197581856020860161190c565b61197e8161193f565b840191505092915050565b600060208201905081810360008301526119a38184611950565b905092915050565b600080fd5b600073ffffffffffffffffffffffffffffffffffffffff82169050919050565b60006119db826119b0565b9050919050565b6119eb816119d0565b81146119f657600080fd5b50565b600081359050611a08816119e2565b92915050565b6000819050919050565b611a2181611a0e565b8114611a2c57600080fd5b50565b600081359050611a3e81611a18565b92915050565b60008060408385031215611a5b57611a5a6119ab565b5b6000611a69858286016119f9565b9250506020611a7a85828601611a2f565b9150509250929050565b60008115159050919050565b611a9981611a84565b82525050565b6000602082019050611ab46000830184611a90565b92915050565b611ac381611a0e565b82525050565b6000602082019050611ade6000830184611aba565b92915050565b600080600060608486031215611afd57611afc6119ab565b5b6000611b0b868287016119f9565b9350506020611b1c868287016119f9565b9250506040611b2d86828701611a2f565b9150509250925092565b600060ff82169050919050565b611b4d81611b37565b82525050565b6000602082019050611b686000830184611b44565b92915050565b600060208284031215611b8457611b836119ab565b5b6000611b9284828501611a2f565b91505092915050565b600080600060608486031215611bb457611bb36119ab565b5b6000611bc286828701611a2f565b9350506020611bd386828701611a2f565b9250506040611be486828701611a2f565b9150509250925092565b60008060408385031215611c0557611c046119ab565b5b6000611c1385828601611a2f565b9250506020611c2485828601611a2f565b9150509250929050565b600060208284031215611c4457611c436119ab565b5b6000611c52848285016119f9565b91505092915050565b60008060408385031215611c7257611c716119ab565b5b6000611c80858286016119f9565b9250506020611c91858286016119f9565b9150509250929050565b7f4e487b7100000000000000000000000000000000000000000000000000000000600052602260045260246000fd5b60006002820490506001821680611ce257607f821691505b60208210811415611cf657611cf5611c9b565b5b50919050565b7f4e487b7100000000000000000000000000000000000000000000000000000000600052601160045260246000fd5b6000611d3682611a0e565b9150611d4183611a0e565b9250827fffffffffffffffffffffffffffffffffffffffffffffffffffffffffffffffff03821115611d7657611d75611cfc565b5b828201905092915050565b6000611d8c82611a0e565b9150611d9783611a0e565b925082821015611daa57611da9611cfc565b5b828203905092915050565b611dbe816119d0565b82525050565b6000602082019050611dd96000830184611db5565b92915050565b600081519050611dee81611a18565b92915050565b600060208284031215611e0a57611e096119ab565b5b6000611e1884828501611ddf565b91505092915050565b6000611e2c82611a0e565b9150611e3783611a0e565b9250817fffffffffffffffffffffffffffffffffffffffffffffffffffffffffffffffff0483118215151615611e7057611e6f611cfc565b5b828202905092915050565b7f4e487b7100000000000000000000000000000000000000000000000000000000600052601260045260246000fd5b6000611eb582611a0e565b9150611ec083611a0e565b925082611ed057611ecf611e7b565b5b828204905092915050565b6000606082019050611ef06000830186611db5565b611efd6020830185611db5565b611f0a6040830184611aba565b949350505050565b611f1b81611a84565b8114611f2657600080fd5b50565b600081519050611f3881611f12565b92915050565b600060208284031215611f5457611f536119ab565b5b6000611f6284828501611f29565b91505092915050565b6000604082019050611f806000830185611db5565b611f8d6020830184611aba565b9392505050565b7f45524332303a2064656372656173656420616c6c6f77616e63652062656c6f7760008201527f207a65726f000000000000000000000000000000000000000000000000000000602082015250565b6000611ff06025836118fb565b9150611ffb82611f94565b604082019050919050565b6000602082019050818103600083015261201f81611fe3565b9050919050565b7f496e73756666696369656e74206f757470757420416d6f756e74000000000000600082015250565b600061205c601a836118fb565b915061206782612026565b602082019050919050565b6000602082019050818103600083015261208b8161204f565b9050919050565b7f45524332303a20617070726f76652066726f6d20746865207a65726f2061646460008201527f7265737300000000000000000000000000000000000000000000000000000000602082015250565b60006120ee6024836118fb565b91506120f982612092565b604082019050919050565b6000602082019050818103600083015261211d816120e1565b9050919050565b7f45524332303a20617070726f766520746f20746865207a65726f20616464726560008201527f7373000000000000000000000000000000000000000000000000000000000000602082015250565b60006121806022836118fb565b915061218b82612124565b604082019050919050565b600060208201905081810360008301526121af81612173565b9050919050565b7f45524332303a20696e73756666696369656e7420616c6c6f77616e6365000000600082015250565b60006121ec601d836118fb565b91506121f7826121b6565b602082019050919050565b6000602082019050818103600083015261221b816121df565b9050919050565b7f45524332303a207472616e736665722066726f6d20746865207a65726f20616460008201527f6472657373000000000000000000000000000000000000000000000000000000602082015250565b600061227e6025836118fb565b915061228982612222565b604082019050919050565b600060208201905081810360008301526122ad81612271565b9050919050565b7f45524332303a207472616e7366657220746f20746865207a65726f206164647260008201527f6573730000000000000000000000000000000000000000000000000000000000602082015250565b60006123106023836118fb565b915061231b826122b4565b604082019050919050565b6000602082019050818103600083015261233f81612303565b9050919050565b7f45524332303a207472616e7366657220616d6f756e742065786365656473206260008201527f616c616e63650000000000000000000000000000000000000000000000000000602082015250565b60006123a26026836118fb565b91506123ad82612346565b604082019050919050565b600060208201905081810360008301526123d181612395565b9050919050565b7f45524332303a206d696e7420746f20746865207a65726f206164647265737300600082015250565b600061240e601f836118fb565b9150612419826123d8565b602082019050919050565b6000602082019050818103600083015261243d81612401565b9050919050565b7f45524332303a206275726e2066726f6d20746865207a65726f2061646472657360008201527f7300000000000000000000000000000000000000000000000000000000000000602082015250565b60006124a06021836118fb565b91506124ab82612444565b604082019050919050565b600060208201905081810360008301526124cf81612493565b9050919050565b7f45524332303a206275726e20616d6f756e7420657863656564732062616c616e60008201527f6365000000000000000000000000000000000000000000000000000000000000602082015250565b60006125326022836118fb565b915061253d826124d6565b604082019050919050565b6000602082019050818103600083015261256181612525565b905091905056fea26469706673582212201725f653d84b3064f6080fb349ed895afc6d8f34ba797be8c5fee160dabdfd2b64736f6c63430008090033a2646970667358221220cde6ee1130fdabac0e8341ba58374fde63e61a37a3b7daad17e990910ad89f0d64736f6c63430008090033",
  "linkReferences": {},
  "deployedLinkReferences": {}
}